:020000040000FA
:100000000C9463000C948B000C948B000C94DE0613
:100010000C94DE060C94DE060C948B000C948B0082
:100020000C948B000C948B000C948B000C948B0024
:100030000C948B000C948B000C948B000C948B0014
:100040000C9494060C948B000C9462060C943C0661
:100050000C948B000C948B000C948B000C948B00F4
:100060000C948B000C948B0000000008000201002F
:100070000003040700000000000000000000000072
:1000800023002600290000000000240027002A0089
:1000900000000000250028002B00040404040404D0
:1000A0000404020202020202030303030303010227
:1000B00004081020408001020408102001020408F6
:1000C00010205607050F11241FBECFEFD8E0DEBF6A
:1000D000CDBF24E0A6EFB2E001C01D92A83BB2075D
:1000E000E1F712E0A0E0B1E0EAEDF8E202C005902D
:1000F0000D92A63FB107D9F710E0C2E6D0E004C0E8
:100100002197FE010E943412C136D107C9F70E941F
:1001100017090C9460140C940000AF92BF92CF9218
:10012000DF92EF92FF920F931F93CF93DF936C01B7
:100130007B018B01040F151FEB015E01AE18BF0898
:10014000C017D10759F06991D601ED91FC9101904A
:10015000F081E02DC6010995892B79F7C501DF9162
:10016000CF911F910F91FF90EF90DF90CF90BF90B4
:10017000AF900895FC01538D448D252F30E0842FDE
:1001800090E0821B930B541710F0CF9608950197BF
:100190000895FC01918D828D981761F0A28DAE0FAC
:1001A000BF2FB11D5D968C91928D9F5F9F73928F33
:1001B00090E008958FEF9FEF0895FC01918D828D5F
:1001C000981731F0828DE80FF11D858D90E008952C
:1001D0008FEF9FEF0895FC01918D228D892F90E084
:1001E000805C9F4F821B91098F739927089585E446
:1001F00093E00E94EB0021E0892B09F420E0822F9C
:100200000895FC01A48DA80FB92FB11DA35ABF4FAB
:100210002C91848D90E001968F739927848FA68905
:10022000B7892C93A089B1898C91837080648C9359
:10023000938D848D981306C00288F389E02D808108
:100240008F7D80830895EF92FF920F931F93CF933A
:10025000DF93EC0181E0888F9B8D8C8D98131AC001
:10026000E889F989808185FF15C09FB7F894EE89E8
:10027000FF896083E889F989808183708064808345
:100280009FBF81E090E0DF91CF911F910F91FF9090
:10029000EF900895F62E0B8D10E00F5F1F4F0F7338
:1002A0001127E02E8C8D8E110CC00FB607FCFACFF3
:1002B000E889F989808185FFF5CFCE010E9401018F
:1002C000F1CFEB8DEC0FFD2FF11DE35AFF4FF082C4
:1002D0009FB7F8940B8FEA89FB8980818062CFCF2A
:1002E000CF93DF93EC01888D8823B9F0AA89BB896D
:1002F000E889F9898C9185FD03C0808186FD0DC058
:100300000FB607FCF7CF8C9185FFF2CF808185FF78
:10031000EDCFCE010E940101E9CFDF91CF91089589
:1003200090E0FC01E859FF4F2491FC01E255FF4F9A
:100330003491FC01E656FF4FE491EE23C9F02223ED
:1003400039F0233001F1A8F4213019F1223029F1DC
:10035000F0E0EE0FFF1FE057FF4FA591B4918FB76C
:10036000F894EC91611126C030953E233C938FBFE9
:1003700008952730A9F02830C9F0243049F780913A
:1003800080008F7D03C0809180008F7780938000F4
:10039000DFCF84B58F7784BDDBCF84B58F7DFBCF76
:1003A0008091B0008F778093B000D2CF8091B00061
:1003B0008F7DF9CF3E2BDACF3FB7F89480913B0386
:1003C00090913C03A0913D03B0913E0326B5A89BBC
:1003D00005C02F3F19F00196A11DB11D3FBFBA2FD7
:1003E000A92F982F8827BC01CD01620F711D811D97
:1003F000911D42E0660F771F881F991F4A95D1F71C
:1004000008958F929F92AF92BF92CF92DF92EF9218
:10041000FF924B015C010E94DC016B017C010E9498
:10042000DC016C197D098E099F09683E73408105C6
:100430009105A8F321E0821A9108A108B10888EE7D
:10044000C80E83E0D81EE11CF11C81149104A104A4
:10045000B10429F7FF90EF90DF90CF90BF90AF905D
:100460009F908F9008952FB7F89460913703709103
:1004700038038091390390913A032FBF089520915A
:100480004103309142032817390771F490913F03DB
:1004900080914003981741F0E0913F03F0E0EA506B
:1004A000FD4F808190E008958FEF9FEF08950895AC
:1004B000EF92FF920F931F93CF93DF93DC015C9633
:1004C000ED90FC905D97E114F10479F481E090E007
:1004D00013969C938E93129790E080E0DF91CF91DA
:1004E0001F910F91FF90EF9008955196ED91FC911F
:1004F000529750968C915097982F90950FB75E9683
:100500002C915E97122F127021FD6095F894208136
:10051000112319F1282B2083E7012197F1F728E017
:10052000462F50E0308160FF1AC0382B3083E7013E
:100530002197F1F7BA0175956795215089F7112335
:1005400081F08081892380830FBF5C968D919C917F
:100550000197F1F781E090E0C1CF2923DCCF392367
:10056000E5CF9081892BEFCF209141033091420359
:100570002817390771F48091400320913F0390E0E0
:10058000805C9F4F821B910960E470E00E94FE1125
:10059000089590E080E00895209141033091420356
:1005A00028173907B9F490913F03809140039817B9
:1005B00089F0E0913F03F0E0EA50FD4F8081209107
:1005C0003F0330E02F5F3F4F2F73332720933F03CC
:1005D00090E008958FEF9FEF089590E080E00895F8
:1005E000CF93DF93EC018A859B85AC85BD858E8397
:1005F0009F83A887B9870E9433026A837B838C8399
:100600009D8381E089838883DF91CF910895CF9383
:10061000DF93EC018E819F81A885B9858A839B83B6
:10062000AC83BD830E9433026A877B878C879D875A
:1006300081E089838883DF91CF910895FC01019047
:100640000020E9F73197AF01481B590BBC0185E445
:1006500093E00C948D008F929F92AF92BF920F9374
:100660001F93CF93DF93CDB7DEB7A1970FB6F89462
:10067000DEBF0FBECDBF19A2423008F44AE08E01A2
:100680000F5D1F4F842E912CB12CA12CA50194013C
:100690000E941212E62FB901CA01EA30F4F4E05DBB
:1006A000D801EE938D01232B242B252B79F790E095
:1006B00080E0109719F0CD010E941E03A1960FB69D
:1006C000F894DEBF0FBECDBFDF91CF911F910F9188
:1006D000BF90AF909F908F900895E95CE1CFCF934A
:1006E000DF930E941E03EC018AE291E00E941E0348
:1006F0008C0F9D1FDF91CF9108954F925F926F9263
:100700007F928F929F92AF92BF92CF92DF92EF92A1
:10071000FF920F931F93CF936B017C01742EAC015A
:100720009B010E94E911882399F08DE291E0CF911D
:100730001F910F91FF90EF90DF90CF90BF90AF90FF
:100740009F908F907F906F905F904F900C941E03BE
:1007500046015701E894B7F82FEF3FEF4FE75FE707
:10076000C501B4010E94E91181110DC02FEF3FEFC7
:100770004FE75FE7C501B4010E94610F18161CF432
:1007800081E391E0D4CF2FEF3FEF4FE75FE4C70164
:10079000B6010E94E41118161CF485E391E0C7CF5E
:1007A0002FEF3FEF4FE75FECC701B6010E94610FEB
:1007B00087FDF3CF20E030E0A901C701B6010E9418
:1007C000610F10E000E087FF0AC06DE285E493E06E
:1007D0000E9423018C01F7FAF094F7F8F094C0E03E
:1007E00060E070E080E09FE37C1641F020E030E0C4
:1007F00040E251E40E944311CF5FF6CFA70196017A
:100800000E94D7102B013C010E94B5114B015C01E5
:100810004AE00E942B037C01E00EF11ECC23C1F1C3
:10082000C501B4010E94660F9B01AC01C301B20176
:100830000E94D6104B015C016EE285E493E00E94B9
:100840002301E80EF91EC15018F120E030E040E22B
:1008500051E4C501B4010E94C70F2B013C010E9465
:10086000B5114B01B12CA12C4AE0C501B4010E9485
:100870002B03E80EF91EC501B4010E94660F9B010F
:10088000AC01C301B2010E94D6104B015C01DBCF69
:10089000C701CF911F910F91FF90EF90DF90CF9004
:1008A000BF90AF909F908F907F906F905F904F9090
:1008B00008958F929F92AF92BF92CF92DF92EF9264
:1008C000FF920F931F93CF93DF93FC0101900020C1
:1008D000E9F731978F01081B190B7C01D0E0C0E0CC
:1008E000A9F430E020E081E0232B09F080E0DF91E3
:1008F000CF911F910F91FF90EF90DF90CF90BF901D
:10090000AF909F908F900895C1E0D0E00E94330295
:1009100060934D0370934E0380934F039093500365
:1009200085E493E00E94C90097FF4AC00E94330209
:1009300080904D0390904E03A0904F03B0905003D1
:10094000681979098A099B098090490390904A03A4
:10095000A0904B03B0904C03681579058A059B0560
:10096000F8F22FEF3FEFBFCF209781F24F01AE019A
:100970002197D4012E914D01022E000C330B281724
:10098000390719F0209799F7C1CF209709F4BCCF08
:10099000B7016F01CC1ADD0A30E020E0DB01AD9039
:1009A000BD01D601BD906D01AB1005C02F5F3F4F5B
:1009B0002C173D0798F3C217D307C9F6EA01A6CF53
:1009C000F701EC0FFD1F2081022E000C330B2817BE
:1009D000390751F621960C171D0709F097CF81CFE3
:1009E00085E493E00E94EB001816190694F489E35D
:1009F00091E00E945904882339F081E090E09093BF
:100A000044038093430308951092440310924303D8
:100A1000E7CF08950E94F70081110C94F004089527
:100A20002F923F924F925F926F927F928F929F92FE
:100A3000AF92BF92CF92DF92EF92FF920F931F93EC
:100A4000CF93DF93D82FC92F8B010E94250F24E667
:100A500030E040E050E00E94121249019B01AC01DD
:100A600060E876E988E990E00E94EE116B017C0174
:100A7000F80191828082ED2FFC2F2191822F022E8E
:100A8000000C990BC0970A97C0F32E3239F51F015D
:100A900080E8882E86E9982E88E9A82EB12C9AE065
:100AA000492E512C612C712CF101C1911F010C2E8A
:100AB000000CDD0BE097CA30D10580F4C501B4010C
:100AC000A30192010E94121249015A01DE010E9403
:100AD0003A12C60ED71EE81EF91EE6CFA5E0B0E01A
:100AE000A70196010E9485106F5F7F4F8F4F9F4F28
:100AF00023E030E040E050E00E941212F80122832F
:100B00003383448355831682DF91CF911F910F91D8
:100B1000FF90EF90DF90CF90BF90AF909F908F901D
:100B20007F906F905F904F903F902F9008951F930C
:100B3000CF93DF93EC0118811D3209F42196CE0189
:100B40000E94250F9B01AC01A4E6B0E00E94851035
:100B5000AB01BC01FE012991822F022E000C990BE2
:100B6000C0970A97B8F32E3231F58181082E000C18
:100B7000990BC0978A309105F0F4AAE0A89F9001E4
:100B8000A99F300D1124C901330FAA0BBB0B480FCD
:100B9000591F6A1F7B1F8281082E000C990BC0977A
:100BA0008A30910540F4092E000CAA0BBB0B480FAC
:100BB000591F6A1F7B1F1D3239F47095609550953F
:100BC00041955F4F6F4F7F4FCB01BA01DF91CF91BE
:100BD0001F910895FC0180819181009711F00C9480
:100BE000F2120895EF92FF920F931F93CF93DF932A
:100BF000EC017B01FB0101900020E9F731978F01A7
:100C0000061B170B88819981009729F02A813B8167
:100C10002017310788F4B8016F5F7F4F0E947B1364
:100C20000097B9F0998388831B830A832C813D81C7
:100C3000232B11F4FC0110821D830C83B7018881E2
:100C40009981DF91CF911F910F91FF90EF900C94BC
:100C50004A1488819981009711F00E94F21219823A
:100C600018821D821C821B821A82DF91CF911F91F4
:100C70000F91FF90EF9008951F920F920FB60F9271
:100C800011242F933F934F935F936F937F938F9391
:100C90009F93AF93BF93EF93FF9385E493E00E94FC
:100CA0000101FF91EF91BF91AF919F918F917F9142
:100CB0006F915F914F913F912F910F900FBE0F90C9
:100CC0001F9018951F920F920FB60F9211242F9319
:100CD0008F939F93EF93FF93E0915503F091560309
:100CE0008081E0915B03F0915C0382FD1BC09081E9
:100CF00080915E038F5F8F7320915F03821741F0B5
:100D0000E0915E03F0E0EB5BFC4F958F80935E0318
:100D1000FF91EF919F918F912F910F900FBE0F90A8
:100D20001F9018958081F4CF1F920F920FB60F92EB
:100D300011242F933F938F939F93AF93BF938091F1
:100D4000370390913803A0913903B0913A03309161
:100D5000360323E0230F2D3758F50196A11DB11D51
:100D6000209336038093370390933803A09339037D
:100D7000B0933A0380913B0390913C03A0913D03D3
:100D8000B0913E030196A11DB11D80933B0390934A
:100D90003C03A0933D03B0933E03BF91AF919F915D
:100DA0008F913F912F910F900FBE0F901F9018952C
:100DB00026E8230F0296A11DB11DD2CF1F920F92DC
:100DC0000FB60F9211242F933F934F935F936F931E
:100DD0007F938F939F93AF93BF93EF93FF93E09194
:100DE0004103F0914203309749F0A685B785858588
:100DF000968D91FF14C09C918923A1F4FF91EF91EE
:100E0000BF91AF919F918F917F916F915F914F9122
:100E10003F912F910F900FBE0F901F9018959C91AE
:100E2000892361F7A389B4899C9185898095892359
:100E30008C93868997890197F1F7608D718DA685CE
:100E4000B785558538E020E0CB010197F1F7822F77
:100E500090E095958795282F4C91452309F02068BF
:100E6000315091F7868D81FD20958091400390E06F
:100E700001968F73992730913F03381799F0A0910D
:100E80004003B0E0AA50BD4F2C9380934003828D65
:100E9000938D0197F1F7A389B4898C919589892B5A
:100EA0008C93ACCF868D8160868FF1CF0F931F938B
:100EB000CF93DF93109248031092470388EE93E09C
:100EC000A0E0B0E08093490390934A03A0934B03C2
:100ED000B0934C032AE031E030934603209345035E
:100EE00025EC30E0309352032093510324EC30E0A2
:100EF000309354032093530320EC30E03093560397
:100F00002093550321EC30E030935803209357038E
:100F100022EC30E030935A032093590326EC30E062
:100F200030935C0320935B0310925E0310925F0387
:100F3000109260031092610310920704109208044B
:100F400010920A041092090410920B0410920C04DF
:100F500010920D0410920E0410920F0410921104BE
:100F600010921004109212041092130410921404A0
:100F7000109215041092160410921804109217047F
:100F80001092190410921A0410921B0410921C045F
:100F900010921D0410921F0410921E04109220043F
:100FA000109221041092220410922304109224041F
:100FB0001092290410922A0410922B0410922C04EF
:100FC00010922D0410922E041092370410923804BF
:100FD0001092390410923A0410923B0410923C048F
:100FE000109245041092460410924B0410924C0447
:100FF00010924D0410924E04109253041092540417
:101000001092590410925A0410925B0410925C04DE
:1010100010926104109262041092670410926804A6
:101020001092690410926A0410926F041092700476
:10103000109275041092760410927704109278043E
:1010400010927D0410927E04109283041092840406
:10105000109285041092860410928B0410928C04D6
:1010600022E020939C0410929D0410929E04109202
:101070009F041092A1041092A0041092A304109255
:10108000A2041092A4041092A5041092A604109237
:10109000A7041092A8041092A9041092AA04109216
:1010A000AB041092AC041092AD041092AE041092F6
:1010B000AF041092B0041092B1041092B2041092D6
:1010C000B30410928D041092EB031092EA03809304
:1010D000EC039093ED03A093EE03B093EF038CE148
:1010E00091E09093E9038093E8031092FF0310923C
:1010F000FE03109201041092000410920304109257
:1011000002041092050410920404609106046E7F9C
:101110006D7F609306046695617081E0682783E0C7
:101120000E94900141EB50E0FA0164918DE990E05A
:10113000FC012491222399F030E0220F331FF901A2
:10114000EA57FF4FA591B491F901E057FF4F259160
:1011500034912FB7F8943C91632B6C932FBFFA0115
:1011600044914093F803FC018491E82FF0E0EE0FE6
:10117000FF1FE057FF4F859194919093FA0380935E
:10118000F90302EB10E0F8012491CEE9D0E0FE0172
:1011900084918823C9F090E0880F991FFC01EA57D9
:1011A000FF4FA591B491FC01E057FF4F4591549139
:1011B0003FB7F8949C91822F809598239C93FA01D5
:1011C0009081892380833FBF8091060481FD04C004
:1011D00061E084E00E94900184E08093F403F801D0
:1011E00004910093F503FE01C491EC2FF0E0EE0FA3
:1011F000FF1FE458FF4F859194919093F7038093DC
:10120000F6031092E3031092E2031092E5031092AA
:10121000E4031092E7031092E6036CE271E082EEC1
:1012200093E0DF91CF911F910F910C94F205CF9332
:10123000DF9300D000D000D0CDB7DEB7789484B56E
:10124000826084BD84B5816084BD85B5826085BDC2
:1012500085B5816085BD80916E00816080936E0050
:101260001092810080918100826080938100809142
:1012700081008160809381008091800081608093F3
:1012800080008091B10084608093B1008091B000B3
:1012900081608093B00080917A00846080937A00AE
:1012A00080917A00826080937A0080917A008160D8
:1012B00080937A0080917A00806880937A001092FF
:1012C000C100E0915503F091560382E08083E091E4
:1012D0005103F09152031082E0915303F0915403B3
:1012E0008FEC808310925D03E0915903F0915A03D3
:1012F00086E08083E0915703F091580380818061FC
:101300008083E0915703F091580380818860808347
:10131000E0915703F0915803808180688083E091C9
:101320005703F091580380818F7D808310920304CE
:101330001092020410920104109200041092FF0314
:101340001092FE038DE991E09093050480930404CC
:101350009091F403963108F047C02DEB30E03093C4
:10136000FF032093FE032BE931E030930104209327
:1013700000042CE231E03093030420930204209116
:10138000680084E0983048F031E09E3008F430E0A6
:1013900081E001C0880F3A95EAF7822B80936800BC
:1013A0002DE630E0983050F02BE630E09E3030F003
:1013B0002CE630E0963110F030E020E03093FC0372
:1013C0002093FB03292F30E0983008F068C081E0BB
:1013D00001C0880F9A95EAF78093FD038091040479
:1013E000909105040197F1F7809102049091030414
:1013F000892B49F1E0914103F091420323E0E83E5B
:10140000F20709F1309739F0A389B4899C91858955
:10141000809589238C93809106048E7F80930604A7
:101420001092400310923F0388EE93E090934203A2
:1014300080934103E091FB03F091FC038081909144
:10144000FD03892B808387E491E00E946F0388E588
:1014500091E00E946F0360ED77E080E090E00E94F1
:10146000010289E691E00E946F038AE791E00E9401
:101470006F0361E070E080E090E00E94010211E003
:1014800085E493E00E94EB0018161906ACF48DE792
:1014900091E00E945904882399F310E0F1CF9E3027
:1014A00040F42850310981E001C0880F2A95EAF7FD
:1014B00093CF2E503109F7CF68EE73E080E090E0D3
:1014C0000E9401021111D1CF80E891E00E946F03C8
:1014D00068EE73E080E090E00E94010283E991E011
:1014E0000E946F0382EA91E00E946F0311E085E49D
:1014F00093E00E94EB001816190644F48DE791E082
:101500000E945904882399F310E0F1CF68EE73E04C
:1015100080E090E00E9401021111E4CF87EA91E09F
:101520000E946F0368EE73E080E090E00E94010289
:1015300080EB91E00E946F0382EC91E00E946F03C8
:1015400011E085E493E00E94EB001816190644F4BC
:101550008BEC91E00E945904882399F310E0F1CFBD
:1015600068EE73E080E090E00E9401021111E4CF88
:1015700088ED91E00E946F0368EE73E080E090E0F8
:101580000E94010288EE91E00E946F038AEF91E0D1
:101590000E946F038BE092E00E946F0360ED77E0A2
:1015A00080E090E00E9401028CE192E00E946F03D3
:1015B0008CE292E00E946F0360ED77E080E090E0C3
:1015C0000E94010289E392E00E946F03109244039B
:1015D00010924303FF24F39482E0E82E01E00E947E
:1015E000F0048091430390914403892B09F4F9C3DB
:1015F00088EE93E00E94B4021816190694F788EE5C
:1016000093E00E94CC02182F8091A4049091A5042D
:10161000A091A604B091A7040196A11DB11D8093CD
:10162000A4049093A504A093A604B093A704143235
:1016300009F4B6C3E0919E0415320CF0BEC01A3016
:1016400019F01D3009F0B9C3EF3008F033C1F0E0F4
:10165000E357FB4F108280918C04882309F468C201
:1016600020918D04822F022E000C990B3FEB320F3C
:10167000363008F0AEC0C7978295807F90918E0477
:10168000292F092E000C330B4FEB490F463008F081
:10169000A8C027533109820F90918B048913F7C09A
:1016A0008091B0049091B104A091B204B091B304C0
:1016B0000196A11DB11D8093B0049093B104A09335
:1016C000B204B093B30480919F04882399F0809171
:1016D000A8049091A904A091AA04B091AB0401962A
:1016E000A11DB11D8093A8049093A904A093AA04FE
:1016F000B093AB04D0909C04DD2009F47BC081E062
:10170000D81234C089E294E00E94070387E394E092
:101710000E94070380919F04882341F187E0E7E15D
:10172000F4E0A9E0B4E001900D928A95E1F787E03A
:10173000EEE1F4E0A0E1B4E001900D928A95E1F7CA
:101740000E9433026093250470932604809327043B
:1017500090932804D0920804D092070485E494E082
:101760000E94F00283E594E00E94F002C090A2047F
:10177000D090A304C114D10409F49CC0E091A20448
:10178000F091A30466A177A1F60186A197A10E941A
:101790004114892B09F08EC0B601C60140960E9403
:1017A0004A140E943302F60160A371A382A393A39B
:1017B000F5A2F4A2C2A4D3A4DDCF1A3209F444CF17
:1017C0001C3209F0FAC280918B04812780938B042C
:1017D0003BCF2156263018F4875591094DCFC0973D
:1017E0004BCF9156963018F42755310954CF2053DA
:1017F000310951CF87E394E00E94070380919F0451
:10180000882321F187E0E7E1F4E0A9E0B4E001906A
:101810000D928A95E1F787E0EEE1F4E0A0E1B4E013
:1018200001900D928A95E1F70E943302609325049E
:10183000709326048093270490932804009308044F
:101840000093070481E694E00E94F00280917904FD
:1018500090917A04A0917B04B0917C0480937504EC
:1018600090937604A0937704B09378040E94330297
:101870006093710470937204809373049093740462
:101880000093700400936F048DE794E06DCF809116
:10189000AC049091AD04A091AE04B091AF04019658
:1018A000A11DB11D8093AC049093AD04A093AE0430
:1018B000B093AF0480919D048F5F80939D0410923C
:1018C0009E0481E01A3209F080E080938C048091BC
:1018D0000804882309F424C110924403109243039E
:1018E0008EE592E00E946F0360E971E080E090E095
:1018F0000E94010288E692E00E946F0360E971E0B5
:1019000080E090E00E9401021A8219821C821B82F0
:101910001E821D8260E872E0CE0101960E94F205EF
:101920004D815E8169817A8185E493E00E948D001A
:1019300068EC70E080E090E00E940102CE01019628
:101940000E94EA0587E691E00E946F031A821982DD
:101950001C821B821E821D8268E972E0CE01019604
:101960000E94F2054D815E8169817A8185E493E070
:101970000E948D0068EC70E080E090E00E9401021F
:10198000CE0101960E94EA0587E691E00E946F036E
:101990008AEB92E00E941E031092080460910B04EF
:1019A00070910C0480910D0490910E040E94660FBA
:1019B00028E23BE64EE65EE40E9443114B015C01E7
:1019C0006091090470910A0490E080E00E94660F23
:1019D0009B01AC01C501B4010E94D71020910F04F6
:1019E0002111905846E00E947D0385EC92E00E9410
:1019F0001E031092080460911204709113048091E8
:101A00001404909115040E94660F28E23BE64EE60E
:101A10005EE40E9443114B015C01609110047091DF
:101A2000110490E080E00E94660F9B01AC01C501AB
:101A3000B4010E94D710209116042111905846E05D
:101A40000E947D038AE291E00E941E0383ED92E0F2
:101A50000E941E031092080460910B0470910C0404
:101A600080910D0490910E040E94660F28E23BE6DF
:101A70004EE65EE40E9443114B015C016091090453
:101A800070910A0490E080E00E94660F9B01AC0117
:101A9000C501B4010E94D71020910F042111905864
:101AA00046E00E947D036CE285E493E00E942301FE
:101AB0001092080460911204709113048091140430
:101AC000909115040E94660F28E23BE64EE65EE424
:101AD0000E9443114B015C0160911004709111044C
:101AE00090E080E00E94660F9B01AC01C501B4014B
:101AF0000E94D710209116042111905846E00E94B0
:101B00007D0381EF92E00E941E036AE185E493E089
:101B10000E94230160ED77E080E090E00E940102E6
:101B20008091430390914403892B09F061CD59CDF5
:101B300090919D04911145C066E472E08DE894E0B7
:101B40000E944114892B41F06CE472E08DE894E02E
:101B50000E944114892BF9F400939C048091A00405
:101B60009091A1049093A3048093A204C090A20436
:101B7000D090A304C114D10409F49CCE6DE874E0A4
:101B8000F60186A197A10E94411497FF36C1F60184
:101B900082A593A5E7CF62E572E08DE894E00E940C
:101BA0004114892B41F068E572E08DE894E00E94D1
:101BB0004114892B19F410929C04D0CFE0929C041C
:101BC000CDCFE0919C04E23009F448C080918D04AF
:101BD000882309F443C020E2E29FF0011124E92B9D
:101BE0003197E932F10508F039C0E750F24F0C9413
:101BF0003412220E630E6A0E710E740EA20EA90E1E
:101C0000B60EC30E2E0E2E0E2E0E2E0E2E0E2E0ED7
:101C10002E0E2E0E2E0E2E0E2E0E2E0E2E0E2E0EE4
:101C20002E0E2E0E2E0E2E0E2E0E2E0E2E0E2E0ED4
:101C30002E0E220E5D0E630E6A0E710E740E7B0E5A
:101C4000880E950E8DE894E00E94970560933D0400
:101C500070933E0480933F0490934004C090A2048C
:101C6000D090A304B0909D04C114D10409F422CEF5
:101C7000E091A204F091A30466A177A1F60186A1E8
:101C800097A10E944114892B09F014CEF60120A5DA
:101C900031A58B2D90E0821793070CF40BCE2817FB
:101CA000390739F440E150E06DE874E0C6010E9464
:101CB0005114F601C2A4D3A4D5CF91E0813409F424
:101CC00045C090E043C067E174E08DE894E00E9475
:101CD0001005C4CF91E0833509F090E090931D0486
:101CE000BDCF6EE174E0F1CF91E0873509F090E06F
:101CF00090932404B3CF8DE894E00E9497056093FD
:101D00004F04709350048093510490935204A6CFD3
:101D10008DE894E00E94970560935D0470935E04E3
:101D200080935F049093600499CF8DE894E00E94C3
:101D3000250F60932F0470933004809331049093A7
:101D400032048CCF91E081330CF4BBCF90939F048D
:101D500085CF8DE894E00E94250F609379047093FD
:101D60007A0480937B0490937C0478CF8DE894E090
:101D70000E94970560938704709388048093890478
:101D800090938A046BCF8DE894E00E94970560934E
:101D90006B0470936C0480936D0490936E045ECF1B
:101DA00010929E0410929D0410928B04E0929C0469
:101DB00010928C0410929F048ACDEE3040F481E0A2
:101DC0008E0F80939E04F0E0E357FB4F10838091C9
:101DD0008C0481117CCD80918B04182710938B0487
:101DE00076CD60E08DE00E9490010E94F70088238C
:101DF00009F4F5CB0E94F004F2CB892B09F45ACDFB
:101E00001092A3041092A20455CD82EE93E00E949A
:101E1000EA058CE191E09093E9038093E8038091D7
:101E2000410390914203885E934071F4E091FB037B
:101E3000F091FC0390818091FD038095892380833C
:101E4000109242031092410308951F93FC019927B9
:101E50008827BC01E89411911032E9F3193010F091
:101E60001E30C8F31B3251F01D3249F4689406C08D
:101E70000E944C0F610F711D811D911D1191105316
:101E80001A30B0F33EF490958095709561957F4F30
:101E90008F4F9F4F1F910895592F482F372F262F6F
:101EA000660F771F881F991F660F771F881F991F5E
:101EB000620F731F841F951F660F771F881F991F5E
:101EC00008950E94A30F08F481E00895E89409C0E2
:101ED00097FB3EF490958095709561957F4F8F4F5D
:101EE0009F4F9923A9F0F92F96E9BB279395F69573
:101EF000879577956795B795F111F8CFFAF4BB0FF1
:101F000011F460FF1BC06F5F7F4F8F4F9F4F16C054
:101F1000882311F096E911C0772321F09EE8872FDE
:101F2000762F05C0662371F096E8862F70E060E09A
:101F30002AF09A95660F771F881FDAF7880F969513
:101F4000879597F90895990F0008550FAA0BE0E8B7
:101F5000FEEF16161706E807F907C0F0121613066B
:101F6000E407F50798F0621B730B840B950B39F4AB
:101F70000A2661F0232B242B252B21F408950A2611
:101F800009F4A140A6958FEF811D811D08950E943F
:101F9000DA0F0C944B100E943D1038F00E94441050
:101FA00020F0952311F00C9434100C943A10112465
:101FB0000C947F100E945C1070F3959FC1F3950FF5
:101FC00050E0551F629FF001729FBB27F00DB11DBD
:101FD000639FAA27F00DB11DAA1F649F6627B00D4D
:101FE000A11D661F829F2227B00DA11D621F739F36
:101FF000B00DA11D621F839FA00D611D221F749F44
:102000003327A00D611D231F849F600D211D822F8A
:10201000762F6A2F11249F5750409AF0F1F08823B1
:102020004AF0EE0FFF1FBB1F661F771F881F9150DE
:102030005040A9F79E3F510580F00C9434100C9449
:102040007F105F3FE4F3983ED4F3869577956795CC
:10205000B795F795E7959F5FC1F7FE2B880F911D08
:102060009695879597F9089597F99F6780E870E0AE
:1020700060E008959FEF80EC089500240A941616FE
:10208000170618060906089500240A941216130666
:10209000140605060895092E0394000C11F48823F4
:1020A00052F0BB0F40F4BF2B11F460FF04C06F5F10
:1020B0007F4F8F4F9F4F089557FD9058440F551FE6
:1020C00059F05F3F71F04795880F97FB991F61F0BA
:1020D0009F3F79F087950895121613061406551F31
:1020E000F2CF4695F1DF08C0161617061806991F9D
:1020F000F1CF86957105610508940895E894BB2792
:1021000066277727CB0197F908950E94C710A59FEE
:10211000900DB49F900DA49F800D911D11240895E2
:102120002F923F924F925F926F927F928F929F92E7
:10213000AF92BF92CF92DF92EF92FF920F931F93D5
:10214000CF93DF93CDB7DEB7CA1BDB0B0FB6F89486
:10215000DEBF0FBECDBF09942A88398848885F84C6
:102160006E847D848C849B84AA84B984C884DF8037
:10217000EE80FD800C811B81AA81B981CE0FD11D1B
:102180000FB6F894DEBF0FBECDBFED010895A29F3C
:10219000B001B39FC001A39F700D811D1124911D3B
:1021A000B29F700D811D1124911D08955058BB27B9
:1021B000AA270E94EE100C944B100E943D1038F09C
:1021C0000E94441020F039F49F3F19F426F40C9437
:1021D0003A100EF4E095E7FB0C943410E92F0E94BE
:1021E0005C1058F3BA17620773078407950720F04D
:1021F00079F4A6F50C947E100EF4E0950B2EBA2F10
:10220000A02D0B01B90190010C01CA01A0011124FC
:10221000FF27591B99F0593F50F4503E68F11A16A8
:10222000F040A22F232F342F4427585FF3CF469539
:1022300037952795A795F0405395C9F77EF41F165B
:10224000BA0B620B730B840BBAF09150A1F0FF0F25
:10225000BB1F661F771F881FC2F70EC0BA0F621F11
:10226000731F841F48F4879577956795B795F79501
:102270009E3F08F0B0CF9395880F08F09927EE0F96
:102280009795879508950E9457110C944B100E94C2
:10229000441058F00E943D1040F029F45F3F29F0AF
:1022A0000C94341051110C947F100C943A100E942D
:1022B0005C1068F39923B1F3552391F3951B550BEB
:1022C000BB27AA2762177307840738F09F5F5F4F09
:1022D000220F331F441FAA1FA9F335D00E2E3AF048
:1022E000E0E832D091505040E695001CCAF72BD060
:1022F000FE2F29D0660F771F881FBB1F26173707B1
:102300004807AB07B0E809F0BB0B802DBF01FF27E2
:1023100093585F4F3AF09E3F510578F00C9434107B
:102320000C947F105F3FE4F3983ED4F38695779545
:102330006795B795F7959F5FC9F7880F911D96959B
:10234000879597F90895E1E0660F771F881FBB1FF7
:10235000621773078407BA0720F0621B730B840BA4
:10236000BA0BEE1F88F7E09508950E94641088F07C
:102370009F5798F0B92F9927B751B0F0E1F0660F49
:10238000771F881F991F1AF0BA95C9F714C0B1308A
:1023900091F00E947E10B1E008950C947E10672F9A
:1023A000782F8827B85F39F0B93FCCF386957795B9
:1023B0006795B395D9F73EF49095809570956195A2
:1023C0007F4F8F4F9F4F08950E94A30F08F48FEF08
:1023D00008950E94A30F880B990B0895DB018F933A
:1023E0009F930E948510BF91AF91A29F800D911D78
:1023F000A39F900DB29F900D1124089597FB072E77
:1024000016F4009407D077FD09D00E94421207FC11
:1024100005D03EF4909581959F4F089570956195F4
:102420007F4F0895A1E21A2EAA1BBB1BFD010DC010
:10243000AA1FBB1FEE1FFF1FA217B307E407F50774
:1024400020F0A21BB30BE40BF50B661F771F881F50
:10245000991F1A9469F760957095809590959B01E6
:10246000AC01BD01CF010895EE0FFF1F0590F4915F
:10247000E02D0994B7FF0C9485100E948510821BF3
:10248000930B0895AA1BBB1B51E107C0AA1FBB1FDA
:10249000A617B70710F0A61BB70B881F991F5A95F0
:1024A000A9F780959095BC01CD0108950F931F93D6
:1024B000CF93DF938230910510F482E090E0E091B9
:1024C000B604F091B70430E020E0B0E0A0E030972F
:1024D00099F42115310509F44AC0281B390B243021
:1024E0003105D8F58A819B816115710589F1FB0160
:1024F00093838283FE0111C0408151810281138147
:1025000048175907E0F04817590799F4109761F0F8
:1025100012960C93129713961C933296CF01DF916B
:10252000CF911F910F9108950093B6041093B704B3
:10253000F4CF2115310551F04217530738F0A901A6
:10254000DB019A01BD01DF01F801C1CFEF01F9CF35
:102550009093B7048093B604CDCFFE01E20FF31F32
:10256000819391932250310939832883D7CF2091C9
:10257000B4043091B504232B41F420910201309131
:1025800003013093B5042093B404209100013091ED
:1025900001012115310541F42DB73EB740910401E9
:1025A00050910501241B350BE091B404F091B50462
:1025B000E217F307A0F42E1B3F0B2817390778F01A
:1025C000AC014E5F5F4F2417350748F04E0F5F1F79
:1025D0005093B5044093B404819391939FCFF0E05E
:1025E000E0E09CCFCF93DF930097E9F0FC013297B6
:1025F00013821282A091B604B091B704ED0130E0CD
:1026000020E01097A1F420813181820F931F209147
:10261000B4043091B5042817390709F061C0F0936C
:10262000B504E093B404DF91CF910895EA01CE1789
:10263000DF07E8F54A815B819E0141155105B1F73D
:10264000E901FB83EA8349915991C40FD51FEC1727
:10265000FD0761F4808191810296840F951FE90145
:1026600099838883828193819B838A83F0E0E0E071
:1026700012968D919C9113970097B9F52D913C91ED
:102680001197CD010296820F931F2091B4043091CF
:10269000B5042817390739F6309751F51092B70469
:1026A0001092B604B093B504A093B404BCCFD38306
:1026B000C28340815181840F951FC817D90761F4E7
:1026C0004E5F5F4F88819981480F591F5183408326
:1026D0008A819B81938382832115310509F0B0CFD4
:1026E000F093B704E093B6049ECFFD01DC01C0CFA8
:1026F00013821282D7CFB0E0A0E0E1E8F3E10C94BE
:1027000092108C01009751F4CB010E9456128C015B
:10271000C801CDB7DEB7E0E10C94AE10FC01E60FC6
:10272000F71F9C0122503109E217F30708F49DC0FE
:10273000D901CD91DC911197C617D70798F0C53014
:10274000D10530F3CE0104978617970708F3C61B0F
:10275000D70B2297C193D1936D937C93CF010E94A5
:10276000F212D6CF5B01AC1ABD0A4C018C0E9D1E35
:10277000A091B604B091B704512C412CF12CE12C5E
:10278000109731F58091B4049091B504881599059E
:1027900009F05CC04616570608F058C08091000149
:1027A00090910101009741F48DB79EB740910401CB
:1027B00050910501841B950BE817F90708F055C0E7
:1027C000F093B504E093B404F90171836083A0CF62
:1027D0008D919C91119712966C90129713967C9004
:1027E0001397A815B90559F56C0142E0C40ED11C28
:1027F000CA14DB0420F1AC014A195B09DA01129614
:10280000159780F06282738251834083D9016D9362
:102810007C93E114F10471F0D7011396FC93EE93CD
:10282000129776CF22968C0F9D1FF901918380839A
:10283000F301EFCFF093B704E093B60469CF4816E5
:10284000590608F42C017D01D3019ACFCB010E94D7
:1028500056127C01009749F0AE01B8010E9438146D
:10286000C8010E94F212870153CF10E000E050CF60
:10287000FB01DC0102C001900D9241505040D8F79D
:102880000895FB01DC018D91019080190110D9F3AD
:10289000990B0895FB01DC0101900D920020E1F7F6
:1028A0000895FB01DC014150504048F001900D9229
:1028B0000020C9F701C01D9241505040E0F7089533
:1028C00010E0C2E6D0E004C0FE010E94341221965E
:1028D000C336D107C9F7F894FFCF0000B8048000D1
:1028E0000000000023018D00BA007001EB00C90058
:1028F000DD000000000058028D00ED025702B40216
:10290000CC023F020D0A006E616E00696E66006FB8
:10291000766600547261636B2056656869636C6506
:102920000056656869636C6520547261636B696EFB
:1029300067002020202053797374656D20202020AB
:1029400020200046696E64696E67204D6F64756C67
:10295000652E2E004154004F4B004D6F64756C6521
:1029600020436F6E6E65637465642E2E0044697338
:1029700061626C696E67204543484F0041544530A1
:10298000004563686F204F46460046696E64696E75
:1029900067204E6574776F726B2E2E0041542B4367
:1029A00050494E3F002B4350494E3A205245414436
:1029B00059004E6574776F726B20466F756E642E8A
:1029C0002E0041542B434E4D493D322C322C302C9D
:1029D000302C300047505320496E697469616C692E
:1029E0007A696E670020204E6F2047505320526155
:1029F0006E67652020004750532052616E67652046
:102A0000466F756E640047505320697320526561AC
:102A100064790053797374656D205265616479003F
:102A20004750524D4300474E524D43004750474791
:102A30004100474E4747410041542B434D47463DD7
:102A4000310041542B434D47533D222B5A5A58587D
:102A50005858585858585858220056656869636C39
:102A60006520547261636B696E6720416C65727496
:102A70003A00596F75722056656869636C6520432A
:102A8000757272656E74204C6F636174696F6E202D
:102A900069733A004C617469747564653A20000A80
:102AA000204C6F6E6769747564653A2000687474B1
:102AB00070733A2F2F7777772E676F6F676C652E5D
:102AC000636F6D2F6D6170732F40002C31347A006D
:107800000C94343C0C94513C0C94513C0C94513CE1
:107810000C94513C0C94513C0C94513C0C94513CB4
:107820000C94513C0C94513C0C94513C0C94513CA4
:107830000C94513C0C94513C0C94513C0C94513C94
:107840000C94513C0C94513C0C94513C0C94513C84
:107850000C94513C0C94513C0C94513C0C94513C74
:107860000C94513C0C94513C11241FBECFEFD8E036
:10787000DEBFCDBF11E0A0E0B1E0ECE9FFE702C060
:1078800005900D92A230B107D9F712E0A2E0B1E065
:1078900001C01D92AD30B107E1F70E942D3D0C945F
:1078A000CC3F0C94003C982F959595959595959582
:1078B000905D8F708A307CF0282F295A8091C0000B
:1078C00085FFFCCF9093C6008091C00085FFFCCF60
:1078D0002093C6000895282F205DF0CF982F809127
:1078E000C00085FFFCCF9093C6000895EF92FF92F1
:1078F0000F931F93EE24FF2487018091C00087FD22
:1079000017C00894E11CF11C011D111D81E4E8164B
:1079100082E4F8068FE0080780E0180770F3E09132
:107920000401F091050109958091C00087FFE9CF1E
:107930008091C6001F910F91FF90EF9008950E94D3
:10794000763C982F8091C00085FFFCCF9093C600B5
:1079500091362CF490330CF09053892F089597555D
:10796000892F08951F930E949F3C182F0E949F3CCF
:107970001295107F810F1F9108951F93182F882350
:1079800021F00E94763C1150E1F71F9108951F935A
:10799000182F0E94763C803249F0809103018F5F5E
:1079A000809303018530C1F01F9108958091C0003C
:1079B00085FFFCCF84E18093C6008091C00085FFE5
:1079C000FCCF1093C6008091C00085FFFCCF80E102
:1079D0008093C6001F910895E0910401F091050184
:1079E00009951F9108950E94763C803241F0809164
:1079F00003018F5F80930301853081F008958091AA
:107A0000C00085FFFCCF84E18093C6008091C00058
:107A100085FFFCCF80E18093C6000895E0910401CA
:107A2000F09105010995089540E951E08823A1F0FE
:107A30002D9A28EE33E0FA013197F1F721503040CA
:107A4000D1F72D9828EE33E0FA013197F1F7215064
:107A50003040D1F7815061F708953F924F925F9285
:107A60006F927F928F929F92AF92BF92CF92DF924E
:107A7000EF92FF920F931F93CF93DF93000080E16B
:107A80008093C4001092C50088E18093C10086E015
:107A90008093C2005098589A259A81E00E94143D24
:107AA00024E1F22E9EE1E92E85E9D82E0FE0C02ECA
:107AB00010E1B12EAA24A394B1E49B2EA6E58A2E50
:107AC000F2E57F2EE0E26E2E79E4572E63E5462E36
:107AD00050E5352E0E94763C8033B1F18133B9F107
:107AE000803409F46FC0813409F476C0823409F41B
:107AF00085C0853409F488C0803531F1823521F1A3
:107B0000813511F1853509F485C0863509F48DC0BC
:107B1000843609F496C0843709F403C1853709F423
:107B200072C1863709F466C0809103018F5F80932C
:107B30000301853079F6E0910401F0910501099582
:107B40000E94763C803351F60E94F33CC3CF0E94E2
:107B5000763C803249F78091C00085FFFCCFF092DF
:107B6000C6008091C00085FFFCCF9092C600809136
:107B7000C00085FFFCCF8092C6008091C00085FFC9
:107B8000FCCF7092C6008091C00085FFFCCF609250
:107B9000C6008091C00085FFFCCF5092C600809146
:107BA000C00085FFFCCF4092C6008091C00085FFD9
:107BB000FCCF3092C6008091C00085FFFCCFB09210
:107BC000C60088CF0E94763C863808F4BDCF0E945C
:107BD000763C0E94F33C7ECF0E94763C803809F4CC
:107BE0009CC0813809F40BC1823809F43CC1883942
:107BF00009F48FC080E00E94C73C6CCF84E10E94F2
:107C0000BD3C0E94F33C66CF85E00E94BD3C0E94D3
:107C1000F33C60CF0E94763C809306010E94763C44
:107C2000809307010E94F33C55CF0E94763C80333D
:107C300009F41DC183E00E94BD3C80E00E94C73C66
:107C400049CF0E94763C809309020E94763C809343
:107C5000080280910C028E7F80930C020E94763C79
:107C6000853409F415C18091080290910902892B8D
:107C700089F000E010E00E94763CF801E85FFE4FDA
:107C800080830F5F1F4F80910802909109020817AF
:107C9000190788F30E94763C803209F045CF809125
:107CA0000C0280FF01C16091060170910701660F0F
:107CB000771F7093070160930601A0910802B091AD
:107CC00009021097C9F0E8E0F1E09B01AD014E0F09
:107CD0005F1FF999FECF32BD21BD819180BDFA9A17
:107CE000F99A2F5F3F4FE417F50799F76A0F7B1F4B
:107CF00070930701609306018091C00085FFFCCF5F
:107D0000F092C6008091C00085FFFCCFB092C60003
:107D1000E1CE83E00E94C73CDDCE82E00E94C73CFA
:107D2000D9CE0E94763C809309020E94763C8093D3
:107D300008028091060190910701880F991F909386
:107D40000701809306010E94763C853409F4A6C0A1
:107D500080910C028E7F80930C020E94763C8032D0
:107D600009F0B8CE8091C00085FFFCCFF092C6002C
:107D7000609108027091090261157105B9F140E046
:107D800050E080910C02A82FA170B82FB27011C0E2
:107D9000BB2309F45CC0E0910601F0910701319624
:107DA000F0930701E09306014F5F5F4F46175707B7
:107DB000E8F4AA2369F3F999FECF209106013091E6
:107DC000070132BD21BDF89A90B58091C00085FFB2
:107DD000FCCF9093C6002F5F3F4F30930701209355
:107DE00006014F5F5F4F4617570718F38091C00099
:107DF00085FDE5CE8091C00085FFF8CFE0CE81E023
:107E00000E94C73C67CE0E94763C803209F08CCE3F
:107E10008091C00085FFFCCFF092C6008091C00029
:107E200085FFFCCFE092C6008091C00085FFFCCFAB
:107E3000D092C6008091C00085FFFCCFC092C600E2
:107E40008091C00085FFFCCFB092C60043CEE09188
:107E50000601F091070194918091C00085FFFCCF4D
:107E60009093C6009CCF80E10E94C73C33CE0E9415
:107E7000763C0E94763C182F0E94763C112309F430
:107E800083C0113009F484C08FE00E94C73C22CE29
:107E900080910C02816080930C02E5CE80910C02EF
:107EA000816080930C0259CF809107018823880F4D
:107EB000880B8A2180930B02809106019091070123
:107EC000880F991F90930701809306018091080203
:107ED00080FF09C080910802909109020196909359
:107EE000090280930802F894F999FECF1127E091D6
:107EF0000601F0910701C8E0D1E08091080290915D
:107F00000902103091F40091570001700130D9F34B
:107F100003E000935700E89500915700017001308D
:107F2000D9F301E100935700E89509901990009169
:107F3000570001700130D9F301E000935700E89534
:107F40001395103498F011270091570001700130FB
:107F5000D9F305E000935700E895009157000170B0
:107F60000130D9F301E100935700E895329602976A
:107F700009F0C7CF103011F00296E5CF112480919F
:107F8000C00085FFB9CEBCCE8EE10E94C73CA2CD19
:0E7F900085E90E94C73C9ECDF894FFCF80008B
:00000001FF
