:100000000C94E0000C9408010C9408010C940A096B
:100010000C940A090C940A090C9408010C94080128
:100020000C9408010C9408010C9408010C9408012C
:100030000C9408010C9408010C9408010C9408011C
:100040000C94C0080C9408010C948E080C94680859
:100050000C9408010C9408010C9408010C940801FC
:100060000C9408010C94080100407A10F35A00A087
:10007000724E18090010A5D4E80000E87648170071
:1000800000E40B54020000CA9A3B000000E1F505B1
:10009000000080969800000040420F000000A086FB
:1000A00001000000102700000000E803000000002D
:1000B0006400000000000A000000000001000000D1
:1000C00000002C76D888DC674F0823DFC1DFAE59EB
:1000D000E1B1B796E5E3E453C63AE651997696E87E
:1000E000E6C28426EB898C9B62ED407C6FFCEFBC02
:1000F0009C9F40F2BAA56FA5F490055A2AF75C932D
:100100006B6CF9676DC11BFCE0E40D47FEF520E662
:10011000B500D0ED902E0300943577050080841E45
:10012000080000204E0A000000C80C333333330FA0
:10013000986E12831141EF8D2114893BE65516CF3D
:10014000FEE6DB18D1844B381BF77C1D901DA4BB49
:10015000E424203284725E228100C9F124ECA1E5FE
:100160003D27000000080002010000030407000012
:10017000000000000000000000002300260029000D
:1001800000000000240027002A00000000002500D5
:1001900028002B00040404040404040402020202E4
:1001A000020203030303030301020408102040803A
:1001B000010204081020010204081020CE09681072
:1001C00011241FBECFEFD8E0DEBFCDBF24E0A6E2F2
:1001D000B2E001C01D92AB31B207E1F712E0A0E03E
:1001E000B1E0E0ECF0E302C005900D92A632B10759
:1001F000D9F710E0CFEDD0E004C02197FE010E94B6
:100200000D16CE3DD107C9F70E94B50A0C945318BC
:100210000C9400000895AF92BF92CF92DF92EF92BC
:10022000FF920F931F93CF93DF936C017B018B01A0
:10023000040F151FEB015E01AE18BF08C017D107F0
:1002400059F06991D601ED91FC910190F081E02D7A
:10025000C6010995892B79F7C501DF91CF911F91CF
:100260000F91FF90EF90DF90CF90BF90AF900895E7
:10027000FC01538D448D252F30E0842F90E0821BAC
:10028000930B541710F0CF96089501970895FC0131
:10029000918D828D981761F0A28DAE0FBF2FB11D89
:1002A0005D968C91928D9F5F9F73928F90E00895E1
:1002B0008FEF9FEF0895FC01918D828D981731F09B
:1002C000828DE80FF11D858D90E008958FEF9FEFEF
:1002D0000895FC01918D228D892F90E0805C9F4FC5
:1002E000821B91098F73992708958DE792E00E94F0
:1002F000690121E0892B09F420E0822F089580E034
:1003000090E0892B29F00E94750181110C94000066
:100310000895FC01A48DA80FB92FB11DA35ABF4F9A
:100320002C91848D90E001968F739927848FA689F4
:10033000B7892C93A089B1898C91837080648C9348
:10034000938D848D981306C00288F389E02D8081F7
:100350008F7D80830895EF92FF920F931F93CF9329
:10036000DF93EC0181E0888F9B8D8C8D98131AC0F0
:10037000E889F989808185FF15C09FB7F894EE89D7
:10038000FF896083E889F989808183708064808334
:100390009FBF81E090E0DF91CF911F910F91FF907F
:1003A000EF900895F62E0B8D10E00F5F1F4F0F7327
:1003B0001127E02E8C8D8E110CC00FB607FCFACFE2
:1003C000E889F989808185FFF5CFCE010E948901F6
:1003D000F1CFEB8DEC0FFD2FF11DE35AFF4FF082B3
:1003E0009FB7F8940B8FEA89FB8980818062CFCF19
:1003F000CF93DF93EC01888D8823B9F0AA89BB895C
:10040000E889F9898C9185FD03C0808186FD0DC046
:100410000FB607FCF7CF8C9185FFF2CF808185FF67
:10042000EDCFCE010E948901E9CFDF91CF910895F0
:10043000CF92DF92FF920F931F93CF93DF93EC0144
:10044000F62E142F1B821A8288EE93E0A0E0B0E013
:100450008C839D83AE83BF838AE091E099838883F8
:100460001F8A1E8A198E188E1B8E1A8E1D8E1C8E48
:100470006E8D6E7F6D7F6E8F6695617081E06827EF
:10048000842F0E948209412F50E09A0128553E4F47
:10049000F90164914C565E4FFA018491882399F0DA
:1004A00090E0880F991FFC01E058FE4FA591B49190
:1004B000FC01E657FE4F859194918FB7F8949C917B
:1004C000692B6C938FBFF9012491288BFA01449119
:1004D000E42FF0E0EE0FFF1FE657FE4F8591949159
:1004E0009A8B898B0F2D10E0C80188559E4F6C01A7
:1004F000FC0124910C561E4FF80184918823C9F009
:1005000090E0880F991FFC01E058FE4FA591B4912F
:10051000FC01E657FE4F459154913FB7F8949C91EA
:10052000822F809598239C93FA0190818923808360
:100530003FBF8E8D81FD04C061E08F2D0E94820936
:10054000FC86F601C490CD86F8010491E02FF0E01E
:10055000EE0FFF1FEA58FE4F859194919F878E877B
:10056000DF91CF911F910F91FF90DF90CF90089571
:100570003FB7F89480916F0290917002A091710240
:10058000B091720226B5A89B05C02F3F19F00196C5
:10059000A11DB11D3FBFBA2FA92F982F8827BC01DD
:1005A000CD01620F711D811D911D42E0660F771F05
:1005B000881F991F4A95D1F708958F929F92AF9205
:1005C000BF92CF92DF92EF92FF924B015C010E94AB
:1005D000B8026B017C010E94B8026C197D098E097A
:1005E0009F09683E734081059105A8F321E0821AB6
:1005F0009108A108B10888EEC80E83E0D81EE11C5E
:10060000F11C81149104A104B10429F7FF90EF902B
:10061000DF90CF90BF90AF909F908F9008952FB7AD
:10062000F89460916B0270916C0280916D029091D0
:100630006E022FBF0895CF93DF93EC018A859B85CF
:10064000AC85BD858E839F83A887B9870E940F03E1
:100650006A837B838C839D8381E089838883DF9198
:10066000CF910895CF93DF93EC018E819F81A88570
:10067000B9858A839B83AC83BD830E940F036A87FD
:100680007B878C879D8781E089838883DF91CF91E9
:10069000089520916802309169022817390771F492
:1006A0009091670280916602981741F0E09167028D
:1006B000F0E0EA5DFD4F808190E008958FEF9FEFBD
:1006C00008950895EF92FF920F931F93CF93DF93B6
:1006D000DC015C96ED90FC905D97E114F10479F4F7
:1006E00081E090E013969C938E93129790E080E0C7
:1006F000DF91CF911F910F91FF90EF900895519648
:10070000ED91FC91529750968C915097982F90951F
:100710000FB75E962C915E97122F127021FD609597
:10072000F8942081112319F1282B2083E7012197C8
:10073000F1F728E0462F50E0308160FF1AC0382BD7
:100740003083E7012197F1F7BA017595679521503C
:1007500089F7112381F08081892380830FBF5C9604
:100760008D919C910197F1F781E090E0C1CF292311
:10077000DCCF3923E5CF9081892BEFCF2091680220
:10078000309169022817390771F48091660220912F
:10079000670290E0805C9F4F821B910960E470E0EB
:1007A0000E94B815089590E080E0089520916802B5
:1007B0003091690228173907B9F490916702809146
:1007C0006602981789F0E0916702F0E0EA5DFD4F5C
:1007D00080812091670230E02F5F3F4F2F733327D6
:1007E0002093670290E008958FEF9FEF08950F9395
:1007F0001F930E940F0360935303709354038093DD
:100800005503909356038BE493E00E94D60397FF21
:100810001DC00E940F0300915303109154032091B7
:10082000550330915603601B710B820B930B0091A3
:100830004F031091500320915103309152036017E0
:10084000710782079307F8F28FEF9FEF1F910F91C7
:100850000895E0916802F0916902E817F90769F4D8
:10086000A389B4899C918589809589238C93109262
:1008700069021092680281E0089580E00895CF93A4
:10088000DF93EC018A8D9B8D892B01F180916802A9
:10089000909169028C179D07C9F0009711F00E9492
:1008A00029048E8D8E7F8E8F1092660210926702C1
:1008B000D0936902C0936802EB89FC8980819D898D
:1008C000892B808381E0DF91CF91089580E0FBCF79
:1008D000CF93DF93EC019A01AB011B8E1A8E198E18
:1008E000188E1F8A1E8A60E079E08DE390E00E94F6
:1008F000EE15C90103979D8F8C8F6C85663108F0CA
:100900004BC0C901969587958431910508F449C07B
:1009100043979F8B8E8BC9010597998F888FC9014B
:10092000880F991F280F391F3695279536952795DB
:100930002C5031093B8F2A8F9091680084E06830F9
:1009400048F021E06E3008F420E081E001C0880F1B
:100950002A95EAF7892B809368009C852DE630E084
:10096000983050F02BE630E09E3030F02CE630E04E
:10097000963110F030E020E03C8B2B8B292F30E0BB
:10098000983090F481E001C0880F9A95EAF78D8B3A
:100990008C8D9D8D0197F1F7CE01DF91CF910C9455
:1009A0003F0481E090E0B5CF9E3040F428503109FB
:1009B00081E001C0880F2A95EAF7E9CF2E5031096E
:1009C000F7CF90E080E00895FB0101900020E9F767
:1009D0003197AF01461B570BDC01ED91FC91028072
:1009E000F381E02D09940F931F93CF93DF93EC01D4
:1009F000FB014481558160817181E881F981028028
:100A0000F381E02D09958C016AE271E0CE010E942C
:100A1000E404800F911FDF91CF911F910F910895F2
:100A20008F929F92AF92BF920F931F93CF93DF93BA
:100A3000CDB7DEB7A1970FB6F894DEBF0FBECDBF1E
:100A400019A2423008F44AE08E010F5D1F4F842E38
:100A5000912CB12CA12CA50194010E94CC15E62F5C
:100A6000B901CA01EA3004F5E05DD801EE938D01C9
:100A7000232B242B252B79F790E080E0109729F089
:100A8000BD018DE792E00E94E404A1960FB6F894B0
:100A9000DEBF0FBECDBFDF91CF911F910F91BF90F1
:100AA000AF909F908F900895E95CDFCF4F925F9257
:100AB0006F927F928F929F92AF92BF92CF92DF926E
:100AC000EF92FF920F931F93CF936B017C01742ED3
:100AD000AC019B010E94A3156DE271E0811126C05B
:100AE00046015701E894B7F82FEF3FEF4FE75FE774
:100AF000C501B4010E94A31581110CC02FEF3FEF77
:100B00004FE75FE7C501B4010E941B1361E371E089
:100B1000181664F02FEF3FEF4FE75FE4C701B6010F
:100B20000E949E151816ACF465E371E08DE792E023
:100B3000CF911F910F91FF90EF90DF90CF90BF90DA
:100B4000AF909F908F907F906F905F904F900C949C
:100B5000E4042FEF3FEF4FE75FECC701B6010E94BF
:100B60001B1387FDE1CF20E030E0A901C701B601EA
:100B70000E941B1310E000E087FF0AC06DE28DE7C2
:100B800092E00E94AB018C01F7FAF094F7F8F09430
:100B9000C0E060E070E080E09FE37C1641F020E080
:100BA00030E040E251E40E94FD14CF5FF6CFA70190
:100BB00096010E9491142B013C010E946F154B017C
:100BC0005C014AE00E9410057C01E00EF11ECC237E
:100BD000C1F1C501B4010E9420139B01AC01C30106
:100BE000B2010E9490144B015C016EE28DE792E02D
:100BF0000E94AB01E80EF91EC15018F120E030E070
:100C000040E251E4C501B4010E9481132B013C0173
:100C10000E946F154B01B12CA12C4AE0C501B40113
:100C20000E941005E80EF91EC501B4010E942013B0
:100C30009B01AC01C301B2010E9490144B015C0105
:100C4000DBCFC701CF911F910F91FF90EF90DF9005
:100C5000CF90BF90AF909F908F907F906F905F905C
:100C60004F9008950F931F93CF93DF93EC010E9451
:100C7000E4048C016AE271E0CE010E94E404800F7A
:100C8000911FDF91CF911F910F91089569E371E05A
:100C90008DE792E00E94320668EE73E080E090E01B
:100CA0000E94DD026AE471E08BE493E00E94320668
:100CB00068EE73E080E090E00E94DD026CE571E098
:100CC0008DE792E00C94E4042F923F924F925F9252
:100CD0006F927F928F929F92AF92BF92CF92DF924C
:100CE000EF92FF920F931F93CF93DF93D82FC92FCB
:100CF0008B010E94A81024E630E040E050E00E9402
:100D0000CC1549019B01AC0160E876E988E990E0E7
:100D10000E94A8156B017C01F80191828082ED2F61
:100D2000FC2F2191822F022E000C990BC0970A975D
:100D3000C0F32E3239F51F0180E8882E86E9982EFF
:100D400088E9A82EB12C9AE0492E512C612C712CE7
:100D5000F101C1911F010C2E000CDD0BE097CA3090
:100D6000D10580F4C501B401A30192010E94CC1504
:100D700049015A01DE010E941316C60ED71EE81E55
:100D8000F91EE6CFA5E0B0E0A70196010E943F144E
:100D90006F5F7F4F8F4F9F4F23E030E040E050E088
:100DA0000E94CC15F8012283338344835583168235
:100DB000DF91CF911F910F91FF90EF90DF90CF9037
:100DC000BF90AF909F908F907F906F905F904F906B
:100DD0003F902F9008951F93CF93DF93EC011881DC
:100DE0001D3209F42196CE010E94A8109B01AC018E
:100DF000A4E6B0E00E943F14AB01BC01FE012991C2
:100E0000822F022E000C990BC0970A97B8F32E324E
:100E100031F58181082E000C990BC0978A3091051D
:100E2000F0F4AAE0A89F9001A99F300D1124C901F8
:100E3000330FAA0BBB0B480F591F6A1F7B1F828100
:100E4000082E000C990BC0978A30910540F4092EAA
:100E5000000CAA0BBB0B480F591F6A1F7B1F1D32CA
:100E600039F470956095509541955F4F6F4F7F4F66
:100E7000CB01BA01DF91CF911F910895CF93DF93FA
:100E8000EC0188819981009711F00E94CB1619829C
:100E900018821D821C821B821A82DF91CF910895D5
:100EA0000F931F93CF93DF938C01EB01FC018081A3
:100EB00091810097E1F06881798161157105A9F050
:100EC000428153812C813D814217530770F00E946B
:100ED00023188C819D81F801958384831D821C8257
:100EE000DF91CF911F910F9108950E94CB168881B9
:100EF0009981F801918380838A819B819383828386
:100F00008C819D8195838483198218821B821A8229
:100F1000E5CFFC0180819181009711F00C94CB16F4
:100F200008950F931F93CF93DF93EC0188819981EC
:100F3000009759F02A813B812617370730F081E06E
:100F4000DF91CF911F910F9108958B016F5F7F4FBC
:100F50000E945417009759F0998388831B830A8352
:100F60002C813D81232B59F7FC011082E8CF80E0D2
:100F7000E7CFEF92FF920F931F93CF93DF9361150B
:100F8000710541F480E0DF91CF911F910F91FF90A7
:100F9000EF90089541155105B1F07B01EC010C81F2
:100FA0001D81040F151FB8010E949107882351F37A
:100FB000288139818C819D81B701820F931F0E9406
:100FC00023181D830C8381E0DECFCF93DF93EC01E8
:100FD000FB0144815581608171810E94B9078111B3
:100FE00003C0CE010E943E07CE01DF91CF9108954C
:100FF000EF92FF920F931F93CF93DF93EC017B014E
:101000008A01BA010E94910781110BC0CE010E9492
:101010003E07CE01DF91CF911F910F91FF90EF908E
:1010200008951D830C83B701888199810E9423183C
:10103000F0CFEF92FF920F931F93CF93DF93CDB733
:10104000DEB7A1970FB6F894DEBF0FBECDBF7C010F
:10105000CB01BA01F701118210821382128215822C
:1010600014828E010F5F1F4F26E048E00E948A1015
:101070000097C9F0FC0101900020E9F73197AF011A
:10108000481B590BBC01C7010E94F807A1960FB677
:10109000F894DEBF0FBECDBFDF91CF911F910F91AE
:1010A000FF90EF900895C7010E943E07EFCFFC012B
:1010B000118210821382128215821482FB01019028
:1010C0000020E9F73197AF01461B570B0C94F80746
:1010D0001F920F920FB60F9211242F933F934F93AD
:1010E0005F936F937F938F939F93AF93BF93EF9390
:1010F000FF938DE792E00E948901FF91EF91BF91EC
:10110000AF919F918F917F916F915F914F913F919F
:101110002F910F900FBE0F901F9018951F920F9256
:101120000FB60F9211242F938F939F93EF93FF93FA
:10113000E0918D02F0918E028081E0919302F09116
:10114000940282FD1BC09081809196028F5F8F7305
:1011500020919702821741F0E0919602F0E0E35867
:10116000FD4F958F80939602FF91EF919F918F9104
:101170002F910F900FBE0F901F9018958081F4CF84
:101180001F920F920FB60F9211242F933F938F93BC
:101190009F93AF93BF9380916B0290916C02A0914B
:1011A0006D02B0916E0230916A0223E0230F2D3759
:1011B00058F50196A11DB11D20936A0280936B0220
:1011C00090936C02A0936D02B0936E0280916F02B7
:1011D00090917002A0917102B09172020196A11DCE
:1011E000B11D80936F0290937002A0937102B0932F
:1011F0007202BF91AF919F918F913F912F910F906C
:101200000FBE0F901F90189526E8230F0296A11D80
:10121000B11DD2CF1F920F920FB60F9211242F93B0
:101220003F934F935F936F937F938F939F93AF936E
:10123000BF93EF93FF93E0916802F09169023097BA
:1012400049F0A685B7858585968D91FF14C09C9140
:101250008923A1F4FF91EF91BF91AF919F918F915D
:101260007F916F915F914F913F912F910F900FBEA2
:101270000F901F9018959C91892361F7A389B489D9
:101280009C918589809589238C938689978901977C
:10129000F1F7608D718DA685B785558538E020E022
:1012A000CB010197F1F7822F90E095958795282F34
:1012B0004C91452309F02068315091F7868D81FDCE
:1012C00020958091660290E001968F739927309166
:1012D0006702381799F0A0916602B0E0AA5DBD4F91
:1012E0002C9380936602828D938D0197F1F7A389E9
:1012F000B4898C919589892B8C93ACCF868D816034
:10130000868FF1CF90E0FC01EE59FE4F2491FC0155
:10131000E855FE4F3491FC01EC56FE4FE491EE236C
:10132000C9F0222339F0233001F1A8F4213019F15A
:10133000223029F1F0E0EE0FFF1FE657FE4FA59196
:10134000B4918FB7F894EC91611126C030953E238B
:101350003C938FBF08952730A9F02830C9F024307E
:1013600049F7809180008F7D03C0809180008F7746
:1013700080938000DFCF84B58F7784BDDBCF84B5C9
:101380008F7DFBCF8091B0008F778093B000D2CF5C
:101390008091B0008F7DF9CF3E2BDACFEDE7F2E000
:1013A0001382128288EE93E0A0E0B0E084839583FC
:1013B000A683B7838CE191E09183808385EC90E0F4
:1013C0009587848784EC90E09787868780EC90E00F
:1013D000918B808B81EC90E0938B828B82EC90E000
:1013E000958B848B86EC90E0978B868B118E128E7A
:1013F000138E148EEAE6F3E01082118213821282B9
:101400001482158216821782108612861186138620
:101410001486158616861786118A108A128A138AF0
:10142000148A158A168A108E178A118E128E138EC0
:10143000148E158E12A213A214A215A216A217A220
:1014400010AA11AA12AA13AA14AA15AA16AE17AEA8
:101450001092AE031092AF031092B0031092B1033A
:101460001092B6031092B7031092BC031092BD0302
:101470001092BE031092BF031092C4031092C503D2
:101480001092CA031092CB031092CC031092CD039A
:101490001092D2031092D3031092D8031092D90362
:1014A0001092DA031092DB031092E0031092E10332
:1014B0001092E6031092E7031092E8031092E903FA
:1014C0001092EE031092EF0382E08093FF031092DC
:1014D000000410920104109202041092040410926D
:1014E000030410920604109205041092070410924F
:1014F00008041092090410920A0410920B0410922E
:101500000C0410920D0410920E0410920F0410920D
:1015100010041092110410921204109213041092ED
:10152000140410921504109216041092F00342E075
:1015300063E08BE493E00E94180245E064E08CE2F3
:1015400093E00E9418026CE271E086E293E00E9450
:10155000570861E771E080E293E00E9457086CE26F
:1015600071E08AE193E00C945708CF93DF93CDB7F5
:10157000DEB768970FB6F894DEBF0FBECDBF789484
:1015800084B5826084BD84B5816084BD85B5826088
:1015900085BD85B5816085BD80916E008160809339
:1015A0006E001092810080918100826080938100A2
:1015B00080918100816080938100809180008160B2
:1015C000809380008091B10084608093B10080910D
:1015D000B00081608093B00080917A008460809335
:1015E0007A0080917A00826080937A0080917A00FC
:1015F000816080937A0080917A00806880937A007D
:101600001092C10068E873E180E090E00E94DD0282
:10161000E0918D02F0918E0282E08083E091890258
:10162000F0918A021082E0918B02F0918C028FEC93
:10163000808310929502E0919102F091920286E0EF
:101640008083E0918F02F09190028081806180839D
:10165000E0918F02F0919002808188608083E09118
:101660008F02F0919002808180688083E0918F02E8
:10167000F091900280818F7D808362E370E086E24A
:1016800093E00E9491076FE771E08DE792E00E947E
:10169000320640E855E260E070E08CE293E00E94A0
:1016A000680440E052EC61E070E08BE493E00E945B
:1016B000680468EE73E080E090E00E94DD020E9422
:1016C00046067E0123E1E20EF11C22E0822E9924DF
:1016D000939401E090E0C92E90E0D92E8BE493E042
:1016E0000E94BE03181619060CF0DEC46CE271E00D
:1016F000CE0101960E9457080E94F70397FD0CC087
:101700008F83188641E050E0BE01695F7F4FCE01B4
:1017100001960E94B907F0CFBE016F5F7F4F8AE14B
:1017200093E00E945007CE0101960E9489076AE16A
:1017300073E08DE792E00E94F30466E971E0CE0168
:1017400001960E94570880911E0390911F03892BD8
:1017500071F060901A0370901B0369817A81C30154
:101760000E9439185C01A618B708892B19F4AA241D
:10177000AA94BA2CCE0101960E948907AB20A094AE
:1017800009F492C440E855E260E070E08CE293E036
:101790000E9468048CE293E00E943F048CE293E094
:1017A0000E94BE03181619060CF087C38CE293E062
:1017B0000E94D603182F8091070490910804A091ED
:1017C0000904B0910A040196A11DB11D809307047C
:1017D00090930804A0930904B0930A04143209F406
:1017E0004BC3E091010415320CF0BEC01A3019F061
:1017F0001D3009F04EC3EF3008F033C1F0E0E05186
:10180000FC4F10828091EF03882309F4FDC12091E1
:10181000F003822F022E000C990B3FEB320F363073
:1018200008F0AEC0C7978295807F9091F103292F71
:10183000092E000C330B4FEB490F463008F0A8C0BF
:1018400027533109820F9091EE038913F7C08091DD
:10185000130490911404A0911504B09116040196FC
:10186000A11DB11D8093130490931404A09315043B
:10187000B093160480910204882399F080910B04A0
:1018800090910C04A0910D04B0910E040196A11D3D
:10189000B11D80930B0490930C04A0930D04B0939E
:1018A0000E04B090FF03BB2009F47BC0E1E0BE1240
:1018B00034C08CE893E00E9432038AE993E00E94EE
:1018C000320380910204882341F187E0EAE7F3E0E4
:1018D000ACE6B3E001900D928A95E1F787E0E1E88C
:1018E000F3E0A3E7B3E001900D928A95E1F70E943F
:1018F0000F03609388037093890380938A03909306
:101900008B03B0926B03B0926A0388EA93E00E9463
:101910001B0386EB93E00E941B03A0900504B0908C
:101920000604A114B10409F49CC0E0910504F091EF
:10193000060466A177A1F50186A197A10E941A1855
:10194000892B09F08EC0B501C50140960E9423186D
:101950000E940F03F50160A371A382A393A395A234
:1019600094A2A2A4B3A4DDCF1A3209F444CF1C324E
:1019700009F08FC28091EE0381278093EE033BCF65
:101980002156263018F4875591094DCFC0974BCF7B
:101990009156963018F42755310954CF2053310908
:1019A00051CF8AE993E00E94320380910204882398
:1019B00021F187E0EAE7F3E0ACE6B3E001900D92B5
:1019C0008A95E1F787E0E1E8F3E0A3E7B3E001906F
:1019D0000D928A95E1F70E940F036093880370933C
:1019E000890380938A0390938B0300936B03009386
:1019F0006A0384EC93E00E941B038091DC039091C6
:101A0000DD03A091DE03B091DF038093D8039093B0
:101A1000D903A093DA03B093DB030E940F03609312
:101A2000D4037093D5038093D6039093D703009388
:101A3000D3030093D20380EE93E06DCF80910F0427
:101A400090911004A0911104B09112040196A11D6F
:101A5000B11D80930F0490931004A0931104B093D0
:101A60001204809100048F5F80930004109201049F
:101A700081E01A3209F080E08093EF0380916B03DC
:101A8000882309F48BCE66EB71E08DE792E00E942B
:101A9000E40410926B0360916E0370916F03809168
:101AA0007003909171030E94201328E23BE64EE6FA
:101AB0005EE40E94FD142B013C0160916C03709167
:101AC0006D0390E080E00E9420139B01AC01C301F4
:101AD000B2010E949114209172032111905846E0A6
:101AE0000E94560510926B0360916E0370916F0314
:101AF00080917003909171030E94201328E23BE6CD
:101B00004EE65EE40E94FD142B013C0160916C03E3
:101B100070916D0390E080E00E9420139B01AC0166
:101B2000C301B2010E9491142091720321119058B7
:101B30006093790270937A0280937B0290937C0287
:101B400061EC71E08DE792E00E94E40410926B0377
:101B5000609175037091760380917703909178037B
:101B60000E94201328E23BE64EE65EE40E94FD144C
:101B70002B013C01609173037091740390E080E04D
:101B80000E9420139B01AC01C301B2010E94911479
:101B9000209179032111905846E00E9456056AE28F
:101BA00071E08DE792E00E94E40410926B03609173
:101BB00075037091760380917703909178030E946A
:101BC000201328E23BE64EE65EE40E94FD142B0162
:101BD0003C01609173037091740390E080E00E9477
:101BE00020139B01AC01C301B2010E94911420910A
:101BF0007903211190586093750270937602809357
:101C0000770290937802CACD90910004911145C05B
:101C10006EE971E080EF93E00E941A18892B41F081
:101C200064EA71E080EF93E00E941A18892BF9F4BE
:101C30000093FF03809103049091040490930604A1
:101C400080930504A0900504B0900604A114B1048B
:101C500009F407CF60EF73E0F50186A197A10E9418
:101C60001A1897FF2DC2F50182A593A5E7CF6AEA5E
:101C700071E080EF93E00E941A18892B41F060EB2D
:101C800071E080EF93E00E941A18892B19F41092EA
:101C9000FF03D0CF8092FF03CDCFE091FF03E2306E
:101CA00009F448C08091F003882309F443C020E27E
:101CB000E29FF0011124E92B3197E932F10508F098
:101CC00039C0EB59F14F0C940D168E0ECF0ED60E77
:101CD000DD0EE00E0E0F150F220F2F0F9A0E9A0E2B
:101CE0009A0E9A0E9A0E9A0E9A0E9A0E9A0E9A0EB4
:101CF0009A0E9A0E9A0E9A0E9A0E9A0E9A0E9A0EA4
:101D00009A0E9A0E9A0E9A0E9A0E8E0EC90ECF0E3B
:101D1000D60EDD0EE00EE70EF40E010F80EF93E01D
:101D20000E94EB066093A0037093A1038093A2032B
:101D30009093A303A0900504B09006047090000453
:101D4000A114B10409F48DCEE0910504F0910604CC
:101D500066A177A1F50186A197A10E941A18892B87
:101D600009F07FCEF50120A531A5872D90E08217DF
:101D700093070CF476CE2817390739F440E150E088
:101D800060EF73E0C5010E942A18F501A2A4B3A474
:101D9000D5CF91E0813409F445C090E043C06AE7B3
:101DA00073E080EF93E00E946406C4CF91E0833536
:101DB00009F090E090938003BDCF61E873E0F1CF2C
:101DC00091E0873509F090E090938703B3CF80EFDF
:101DD00093E00E94EB066093B2037093B303809389
:101DE000B4039093B503A6CF80EF93E00E94EB0677
:101DF0006093C0037093C1038093C2039093C303A5
:101E000099CF80EF93E00E94A810609392037093A3
:101E1000930380939403909395038CCF91E0813347
:101E20000CF4BBCF9093020485CF80EF93E00E9427
:101E3000A8106093DC037093DD038093DE0390931E
:101E4000DF0378CF80EF93E00E94EB066093EA0314
:101E50007093EB038093EC039093ED036BCF80EFD3
:101E600093E00E94EB066093CE037093CF038093C0
:101E7000D0039093D1035ECF10920104109200041E
:101E80001092EE038092FF031092EF03109202046F
:101E9000F5CDEE3040F481E08E0F80930104F0E048
:101EA000E051FC4F10838091EF038111E7CD8091C9
:101EB000EE0318271093EE03E1CD8BE493E00E942C
:101EC0003F046EEC71E08BE493E00E94320668EE12
:101ED00073E080E090E00E94DD0268ED71E0CE01E9
:101EE00001960E94570860E273E0CE0101960E94BD
:101EF000E5075C0142E050E062EE71E00E94B90744
:101F0000811103C0C5010E943E07B5018BE493E037
:101F10000E94F304CE0101960E94890768EE73E0E7
:101F200080E090E00E94DD024091750250917602BF
:101F30006091770270917802CE0101960E94190893
:101F40004091790250917A0260917B0270917C02FB
:101F5000CE0107960E94190865EE71E0CE010D963C
:101F60000E945708BE01695F7F4FCE010D960E9407
:101F7000E5075C0141E150E064E172E00E94B907CD
:101F8000811103C0C5010E943E07BE016F5F7F4FF4
:101F9000C5010E94E5071C8A1B8A1E8A1D8A188EAD
:101FA0001F8A8E159F0559F0FC01608171816115B2
:101FB000710529F044815581C7010E94F807CE01BF
:101FC0000D960E948907CE0107960E948907CE01CF
:101FD00001960E948907B7018BE493E00E94F30405
:101FE00064E670E080E090E00E94DD026AE18BE44C
:101FF00093E00E9462036AE271E08BE493E00E9446
:10200000E40468EE73E080E090E00E94DD0210924C
:102010007402109273028BE493E00E94BE03892B3A
:10202000B9F4A0907302B0907402F0EEAF16FEE225
:10203000BF0674F46DE070E080E090E00E94DD0285
:102040002FEFA21AB20AB0927402A0927302E3CFE9
:102050008BE493E00E94BE03892BB1F06CE271E047
:10206000CE0101960E9457080E94F70397FD0CC00D
:102070008F83188641E050E0BE01695F7F4FCE013B
:1020800001960E94B907F0CFBE016F5F7F4F86E2D5
:1020900093E00E945007CE0101960E948907C70174
:1020A0000E9489070E944606C114D10409F416CB88
:1020B0000E947501882309F40ACB0E94000007CB17
:1020C000892B09F4CECC1092060410920504C9CCD9
:1020D000CF93DF938AE193E00E94890780E293E047
:1020E0000E94890786E293E00E948907CAE0D1E056
:1020F000D0932D03C0932C038CE293E00E9429041B
:10210000D0934C03C0934B038BE493E0DF91CF91CA
:102110000C942904EF920F931F93CF93DF93E80160
:1021200034E047FD34E1042E000C550B57FF03C08B
:10213000519541955109E32E022F242FAE010E94A3
:10214000E410CE01DF91CF911F910F91EF90089590
:102150001F93FC0199278827BC01E8941191103244
:10216000E9F3193010F01E30C8F31B3251F01D3264
:1021700049F4689406C00E94CF10610F711D811D43
:10218000911D119110531A30B0F33EF49095809543
:10219000709561957F4F8F4F9F4F1F910895592FD5
:1021A000482F372F262F660F771F881F991F660F1E
:1021B000771F881F991F620F731F841F951F660F5B
:1021C000771F881F991F0895A9E0B0E0EAEEF0E1BB
:1021D0000C9450146A01F22EB02E102FFBE3AF2E98
:1021E000A01608F41BE31F5F012F27E0AE014F5F2D
:1021F0005F4F0E944312BC018981982F99709130E2
:1022000009F43FC09BE2E1FC04C09E2D9170E0FC0C
:102210003AC05E2D5071E82FE87083FF46C084E01D
:10222000911101C083E0EF2DE81B8F1508F0E0E06D
:10223000D6018E2F20E2552351F1992329F0D601A2
:102240009C93C60101966C0196012D5F3F4FE2FE03
:1022500024C08EE4D6018C9391E411969C9311973F
:1022600012968C93D9018E2F90E281111BC0E20F40
:10227000F32FF11D10828EEF9FEF2996ECE00C9466
:102280006C149DE2C6CF90E2C4CF2D938150811192
:10229000FCCFCE0ED11CE0E0D0CF8EE6D6018C93E1
:1022A00091E6DBCF9D938150E0CF482F447082FFB1
:1022B0003DC084E0911101C083E08F1510F4EF2D33
:1022C000E81BD6018E2F20E2552309F1992329F02E
:1022D000D6019C93C60101966C0196012D5F3F4F7C
:1022E000E2FE1BC089E4D6018C938EE411968C9398
:1022F000119786E412968C93D9018E2F90E2882351
:1023000009F4B5CF9D938150FACF2D93815081115F
:10231000FCCFCE0ED11CE0E0D9CF89E6D6018C935C
:102320008EE611968C93119786E6E4CF9B0177FF9A
:1023300002C030E020E0A1E0B0E0911102C0B0E0C6
:10234000A0E0F9013196AE0FBF1F8B2C912CBB2062
:1023500009F461C05401EFEFAE1ABE0AAA0DBB1D0D
:10236000FA161B0619F014F04F2D4A1B511188C0A4
:10237000E3FC59C07601A42FB0E2A1114FC0C40EF6
:10238000D11C992309F45BC040E0D6011196F601F7
:1023900090836D01552309F448C0012F060F9A81DF
:1023A000582F507184FF03C0913309F40150101667
:1023B0000CF047C0093008F008E0EEE2FE2E5B01A9
:1023C000A01AB10885019194819491082F3F32079A
:1023D00029F4D601FC92F60131966F01621773075A
:1023E00094F1021713077CF5DB01A21BB30BAA249F
:1023F000A394B12CAC0EBD1EAA0DBB1D11968C91E1
:1024000021503109D601119628153905F4F0F6014D
:1024100080836D01DBCFB12CA12CA0CFF701B1934C
:102420007F01A150AACF9111B0CFD601942F50E3D4
:1024300002C05D9391509111FCCFC40ED11C40E0BD
:10244000ACCF01E0BACF80E3DBCF6217730731F482
:10245000963388F4953311F4552369F0F60180839F
:10246000FD01842F90E2811108C0A40FB11D1C92C0
:1024700090E080E002CF81E3F1CF91938150F3CFE0
:10248000911183CF8ACF283008F027E03327DA0173
:10249000990F311D87FD916000966105710539F432
:1024A00032602E5F3D9330E32A95E1F708959F3F18
:1024B00030F080387105610509F03C5F3C5F3D9369
:1024C000913008F08068911DDF93CF931F930F9395
:1024D000FF92EF92192F987F9695E92F96959695F2
:1024E000E90FFF27EE53FF4F99273327EE24FF24F0
:1024F000A701E70105900894079428F4360FE71E1A
:10250000F81E491F511D660F771F881F991F0694DB
:10251000A1F70590079428F4E70EF81E491F561FEF
:10252000C11D770F881F991F661F0694A1F705909C
:10253000079428F4F80E491F561FC71FD11D880F96
:10254000991F661F771F0694A1F70590079420F442
:10255000490F561FC71FD81F990F661F771F881F67
:102560000694A9F784911095177041F0D695C795F8
:1025700057954795F794E7941A95C1F7E8E6F0E088
:1025800068941590159135916591959105907FE22C
:102590007395E118F10A430B560BC90BD009C0F72C
:1025A000E10CF11E431F561FC91FD01D7EF470336E
:1025B00011F48A95E6CFE894015030F0080F0AF440
:1025C0000027021708F4202F2395022F7A3328F0D2
:1025D00079E37D932A95E9F710C07D932A9589F6D2
:1025E000069497956795379517951794E118F10A12
:1025F000430B560BC90BD00998F023957E91739528
:102600007A3308F070E37C932013B8F77E91706101
:102610007D9330F0839571E37D9370E32A95E1F724
:102620001124EF90FF900F911F91CF91DF91992787
:1026300087FD909508950E945D1308F481E0089548
:10264000E89409C097FB3EF490958095709561954C
:102650007F4F8F4F9F4F9923A9F0F92F96E9BB2702
:102660009395F695879577956795B795F111F8CF7E
:10267000FAF4BB0F11F460FF1BC06F5F7F4F8F4FE9
:102680009F4F16C0882311F096E911C0772321F0DF
:102690009EE8872F762F05C0662371F096E8862F77
:1026A00070E060E02AF09A95660F771F881FDAF7CE
:1026B000880F9695879597F90895990F0008550FFB
:1026C000AA0BE0E8FEEF16161706E807F907C0F0B8
:1026D00012161306E407F50798F0621B730B840BC0
:1026E000950B39F40A2661F0232B242B252B21F49A
:1026F00008950A2609F4A140A6958FEF811D811D3A
:1027000008950E9494130C9405140E94F71338F056
:102710000E94FE1320F0952311F00C94EE130C94FC
:10272000F41311240C9439140E94161470F3959F1D
:10273000C1F3950F50E0551F629FF001729FBB27B8
:10274000F00DB11D639FAA27F00DB11DAA1F649F54
:102750006627B00DA11D661F829F2227B00DA11D07
:10276000621F739FB00DA11D621F839FA00D611D8D
:10277000221F749F3327A00D611D231F849F600DAE
:10278000211D822F762F6A2F11249F5750409AF0D7
:10279000F1F088234AF0EE0FFF1FBB1F661F771F63
:1027A000881F91505040A9F79E3F510580F00C942E
:1027B000EE130C9439145F3FE4F3983ED4F38695FE
:1027C00077956795B795F795E7959F5FC1F7FE2BCE
:1027D000880F911D9695879597F9089597F99F67AA
:1027E00080E870E060E008959FEF80EC0895002499
:1027F0000A941616170618060906089500240A9466
:1028000012161306140605060895092E0394000CEB
:1028100011F4882352F0BB0F40F4BF2B11F460FF7A
:1028200004C06F5F7F4F8F4F9F4F089557FD9058A3
:10283000440F551F59F05F3F71F04795880F97FB84
:10284000991F61F09F3F79F087950895121613063E
:102850001406551FF2CF4695F1DF08C0161617066D
:102860001806991FF1CF86957105610508940895A2
:10287000E894BB2766277727CB0197F908950E9434
:102880008114A59F900DB49F900DA49F800D911D64
:10289000112408952F923F924F925F926F927F92F0
:1028A0008F929F92AF92BF92CF92DF92EF92FF9260
:1028B0000F931F93CF93DF93CDB7DEB7CA1BDB0B0C
:1028C0000FB6F894DEBF0FBECDBF09942A883988B1
:1028D00048885F846E847D848C849B84AA84B984B8
:1028E000C884DF80EE80FD800C811B81AA81B981C4
:1028F000CE0FD11D0FB6F894DEBF0FBECDBFED01D8
:102900000895A29FB001B39FC001A39F700D811DC8
:102910001124911DB29F700D811D1124911D0895E8
:102920005058BB27AA270E94A8140C9405140E9493
:10293000F71338F00E94FE1320F039F49F3F19F48A
:1029400026F40C94F4130EF4E095E7FB0C94EE13CC
:10295000E92F0E94161458F3BA1762077307840709
:10296000950720F079F4A6F50C9438140EF4E09550
:102970000B2EBA2FA02D0B01B90190010C01CA0139
:10298000A0011124FF27591B99F0593F50F4503EE4
:1029900068F11A16F040A22F232F342F4427585FD6
:1029A000F3CF469537952795A795F0405395C9F7EE
:1029B0007EF41F16BA0B620B730B840BBAF09150A6
:1029C000A1F0FF0FBB1F661F771F881FC2F70EC045
:1029D000BA0F621F731F841F48F487957795679518
:1029E000B795F7959E3F08F0B0CF9395880F08F004
:1029F0009927EE0F9795879508950E9411150C94CD
:102A000005140E94FE1358F00E94F71340F029F4B9
:102A10005F3F29F00C94EE1351110C9439140C946F
:102A2000F4130E94161468F39923B1F3552391F31C
:102A3000951B550BBB27AA2762177307840738F02D
:102A40009F5F5F4F220F331F441FAA1FA9F335D08A
:102A50000E2E3AF0E0E832D091505040E695001C3E
:102A6000CAF72BD0FE2F29D0660F771F881FBB1FF8
:102A7000261737074807AB07B0E809F0BB0B802DD6
:102A8000BF01FF2793585F4F3AF09E3F510578F002
:102A90000C94EE130C9439145F3FE4F3983ED4F396
:102AA000869577956795B795F7959F5FC9F7880FD6
:102AB000911D9695879597F90895E1E0660F771F28
:102AC000881FBB1F621773078407BA0720F0621BB9
:102AD000730B840BBA0BEE1F88F7E09508950E94E4
:102AE0001E1488F09F5798F0B92F9927B751B0F06E
:102AF000E1F0660F771F881F991F1AF0BA95C9F782
:102B000014C0B13091F00E943814B1E008950C94D3
:102B10003814672F782F8827B85F39F0B93FCCF386
:102B2000869577956795B395D9F73EF490958095FE
:102B3000709561957F4F8F4F9F4F08950E945D1351
:102B400008F48FEF08950E945D13880B990B089588
:102B5000DB018F939F930E943F14BF91AF91A29F7F
:102B6000800D911DA39F900DB29F900D112408958B
:102B700097FB072E16F4009407D077FD09D00E942A
:102B80001B1607FC05D03EF4909581959F4F089544
:102B9000709561957F4F0895A1E21A2EAA1BBB1B69
:102BA000FD010DC0AA1FBB1FEE1FFF1FA217B30719
:102BB000E407F50720F0A21BB30BE40BF50B661F2F
:102BC000771F881F991F1A9469F7609570958095F3
:102BD00090959B01AC01BD01CF010895052E97FB97
:102BE0001EF400940E94051657FD07D00E94CC15D4
:102BF00007FC03D04EF40C94051650954095309583
:102C000021953F4F4F4F5F4F089590958095709558
:102C100061957F4F8F4F9F4F0895EE0FFF1F0590D7
:102C2000F491E02D0994B7FF0C943F140E943F14D7
:102C3000821B930B0895AA1BBB1B51E107C0AA1F5F
:102C4000BB1FA617B70710F0A61BB70B881F991F4D
:102C50005A95A9F780959095BC01CD0108950F93E1
:102C60001F93CF93DF938230910510F482E090E0C0
:102C7000E0911904F0911A0430E020E0B0E0A0E007
:102C8000309799F42115310509F44AC0281B390BF6
:102C900024303105D8F58A819B816115710589F150
:102CA000FB0193838283FE0111C040815181028127
:102CB000138148175907E0F04817590799F41097FE
:102CC00061F012960C93129713961C933296CF01D3
:102CD000DF91CF911F910F910895009319041093E4
:102CE0001A04F4CF2115310551F04217530738F07B
:102CF000A901DB019A01BD01DF01F801C1CFEF019C
:102D0000F9CF90931A0480931904CDCFFE01E20FFE
:102D1000F31F819391932250310939832883D7CFB0
:102D20002091170430911804232B41F420910201C3
:102D3000309103013093180420931704209100016F
:102D4000309101012115310541F42DB73EB7409175
:102D5000040150910501241B350BE0911704F091FB
:102D60001804E217F307A0F42E1B3F0B28173907AE
:102D700078F0AC014E5F5F4F2417350748F04E0FD7
:102D80005F1F5093180440931704819391939FCF32
:102D9000F0E0E0E09CCFCF93DF930097E9F0FC01F7
:102DA000329713821282A0911904B0911A04ED0196
:102DB00030E020E01097A1F420813181820F931F31
:102DC00020911704309118042817390709F061C0C1
:102DD000F0931804E0931704DF91CF910895EA016E
:102DE000CE17DF07E8F54A815B819E014115510549
:102DF000B1F7E901FB83EA8349915991C40FD51FCB
:102E0000EC17FD0761F4808191810296840F951F74
:102E1000E90199838883828193819B838A83F0E08F
:102E2000E0E012968D919C9113970097B9F52D9142
:102E30003C911197CD010296820F931F20911704A8
:102E4000309118042817390739F6309751F5109248
:102E50001A0410921904B0931804A0931704BCCF5D
:102E6000D383C28340815181840F951FC817D9072E
:102E700061F44E5F5F4F88819981480F591F5183DC
:102E800040838A819B81938382832115310509F0D8
:102E9000B0CFF0931A04E09319049ECFFD01DC013A
:102EA000C0CF13821282D7CFB0E0A0E0EAE5F7E10D
:102EB0000C944C148C01009751F4CB010E942F16F6
:102EC0008C01C801CDB7DEB7E0E10C946814FC01B9
:102ED000E60FF71F9C0122503109E217F30708F4AF
:102EE0009DC0D901CD91DC911197C617D70798F0F5
:102EF000C530D10530F3CE0104978617970708F344
:102F0000C61BD70B2297C193D1936D937C93CF01AE
:102F10000E94CB16D6CF5B01AC1ABD0A4C018C0EB9
:102F20009D1EA0911904B0911A04512C412CF12C32
:102F3000E12C109731F580911704909118048815B1
:102F4000990509F05CC04616570608F058C08091F4
:102F5000000190910101009741F48DB79EB7409117
:102F6000040150910501841B950BE817F90708F03F
:102F700055C0F0931804E0931704F901718360833E
:102F8000A0CF8D919C91119712966C9012971396E9
:102F90007C901397A815B90559F56C0142E0C40E51
:102FA000D11CCA14DB0420F1AC014A195B09DA0117
:102FB0001296159780F06282738251834083D90103
:102FC0006D937C93E114F10471F0D7011396FC9397
:102FD000EE93129776CF22968C0F9D1FF901918365
:102FE0008083F301EFCFF0931A04E093190469CFC3
:102FF0004816590608F42C017D01D3019ACFCB0164
:103000000E942F167C01009749F0AE01B8010E9482
:103010001118C8010E94CB16870153CF10E000E0C1
:1030200050CFFB01DC0102C001900D924150504095
:10303000D8F70895FB01DC018D91019080190110F2
:10304000D9F3990B0895FB01DC0101900D9200204A
:10305000E1F70895FB01DC014150504048F0019038
:103060000D920020C9F701C01D9241505040E0F779
:103070000895FB0151915523A9F0BF01DC014D9149
:1030800045174111E1F759F4CD010190002049F0B5
:103090004D9140154111C9F3FB014111EFCF81E082
:1030A00090E00197089510E0CFEDD0E004C0FE015C
:1030B0000E940D162196C03ED107C9F7F894FFCFA4
:1030C00000001B0480000000000062030B01E1040B
:1030D0006103BE03D603490300000000AB010B01EE
:1030E0003801F801690147015B010D0A006E616E4C
:1030F00000696E66006F76660047534D2052656129
:103100006420616E20534D530A0041542B434E4DB1
:10311000493D322C322C302C302C3000556E7265EB
:103120006164204D65737361676520646F6E650A25
:10313000002B5A5A58585858585858585858002020
:1031400047534D2053797374656D205374617274C5
:1031500065642E2E2E00234C6F636174650047500A
:10316000524D4300474E524D4300475047474100A0
:10317000474E474741004C617469747564653D2052
:1031800000204C6F6E6769747564653D2000415482
:103190002B434D47463D310041542B434D47533D52
:1031A0002200220D0048692C2063757272656E74CE
:1031B000206C6F636174696F6E206F662062696B4B
:1031C00065206973206F6E204C6174697475646545
:1031D000203D200020616E64204C6F6E676974751D
:0631E0006465203D2000A3
:00000001FF
